:100000000C9434000C943E000C943E000C943E0082
:100008000C943E000C943E000C943E000C943E0070
:100010000C943E000C943E000C943E000C943E0068
:100018000C943E000C943E000C943E000C943E0060
:100020000C943E000C943E000C943E000C943E0058
:100028000C943E000C943E000C943E000C943E0050
:100030000C943E000C943E0011241FBECFEFD8E07C
:10003800DEBFCDBF0E9440000C9445000C94000028
:0E00400085E585B980E090E00895F894FFCF43
:00000001FF
