:100000000C9434000C943E000C943E000C943E0082
:100008000C943E000C943E000C943E000C943E0070
:100010000C943E000C943E000C943E000C943E0068
:100018000C943E000C943E000C943E000C943E0060
:100020000C943E000C943E000C943E000C943E0058
:100028000C943E000C943E000C943E000C943E0050
:100030000C943E000C943E0011241FBECFEFD8E07C
:10003800DEBFCDBF0E9440000C9452000C9400001B
:100040001AB888B1805328B198B190532B3211F46B
:10004800890F05C02D3211F4891B01C085E4805D3C
:0800500088B9EFCFF894FFCF4F
:00000001FF
