:100000000C9434000C943E000C943E000C943E0082
:100008000C943E000C943E000C943E000C943E0070
:100010000C943E000C943E000C943E000C943E0068
:100018000C943E000C943E000C943E000C943E0060
:100020000C943E000C943E000C943E000C943E0058
:100028000C943E000C943E000C943E000C943E0050
:100030000C943E000C943E0011241FBECFEFD8E07C
:10003800DEBFCDBF0E944C000C945D000C94000004
:1000400028E030E090E0482F4170940F86952150D1
:100048003109C9F7892F0895CFEF1AB88BB1CAB90A
:100050000E9440008BB92FEF83ED90E32150804048
:0E0058009040E1F700C00000F0CFF894FFCF19
:00000001FF
