:100000000C9434000C943E000C943E000C943E0082
:100008000C943E000C943E000C943E000C943E0070
:100010000C943E000C943E000C943E000C943E0068
:100018000C943E000C943E000C943E000C943E0060
:100020000C943E000C943E000C943E000C943E0058
:100028000C943E000C943E000C943E000C943E0050
:100030000C943E000C943E0011241FBECFEFD8E07C
:10003800DEBFCDBF0E9440000C9457000C94000016
:1000400095E18AE095B923E63EE649E1215030404A
:100048004040E1F700C0000085B923E63EE649E1FB
:10005000215030404040E1F700C00000EBCFF89461
:02005800FFCFD8
:00000001FF
